020260421853775000180CONSIGSIAPE                                                                                                                                                                                                                                                                                                                                                                                                                                                                                                                                         
1000007468567000000004APUBH2007-746856700034332100000000000000000000000000000000000000000000000000000000000000000                                                                                                                                                                                    00000000000000                    00000000                                                                                                                                                                                     0100000000000000000000000000000000000000000
1000006622096000000004APUBH1989-662209600034332100000000000000000000000000000000000000000000000000000000000000000                                                                                                                                                                                    00000000000000                    00000000                                                                                                                                                                                     0100000000000000000000000000000000000000000
1000006425662000000004APUBH1982-642566200034332100000000000000000000000000000000000000000000000000000000000000000                                                                                                                                                                                    00000000000000                    00000000                                                                                                                                                                                     0100000000000000000000000000000000000000000
1000000828725000000004APUBH2005-082872500034332100000000000000000000000000000000000000000000000000000000000000000                                                                                                                                                                                    00000000000000                    00000000                                                                                                                                                                                     0100000000000000000000000000000000000000000
1000006023483000000004APUBH1974-602348300034332100000000000000000000000000000000000000000000000000000000000000000                                                                                                                                                                                    00000000000000                    00000000                                                                                                                                                                                     0100000000000000000000000000000000000000000
1000003902484000000004APUBH2005-390248400034332100000000000000000000000000000000000000000000000000000000000000000                                                                                                                                                                                    00000000000000                    00000000                                                                                                                                                                                     0100000000000000000000000000000000000000000
1000002466887000000004APUBH2018-246688700034332100000000000000000000000000000000000000000000000000000000000000000                                                                                                                                                                                    00000000000000                    00000000                                                                                                                                                                                     0100000000000000000000000000000000000000000
1000009977397000000004APUBH1995-997739700034332100000000000000000000000000000000000000000000000000000000000000000                                                                                                                                                                                    00000000000000                    00000000                                                                                                                                                                                     0100000000000000000000000000000000000000000
1000004454980000000004APUBH2006-445498000034332100000000000000000000000000000000000000000000000000000000000000000                                                                                                                                                                                    00000000000000                    00000000                                                                                                                                                                                     0100000000000000000000000000000000000000000
1000000931444000000004APUBH1988-093144400034332100000000000000000000000000000000000000000000000000000000000000000                                                                                                                                                                                    00000000000000                    00000000                                                                                                                                                                                     0100000000000000000000000000000000000000000
1000002253660000000004APUBH1996-225366000034332100000000000000000000000000000000000000000000000000000000000000000                                                                                                                                                                                    00000000000000                    00000000                                                                                                                                                                                     0100000000000000000000000000000000000000000
1000003090257000000004APUBH1991-309025700034332100000000000000000000000000000000000000000000000000000000000000000                                                                                                                                                                                    00000000000000                    00000000                                                                                                                                                                                     0100000000000000000000000000000000000000000
1000000790453000000004APUBH1975-079045300034332100000000000000000000000000000000000000000000000000000000000000000                                                                                                                                                                                    00000000000000                    00000000                                                                                                                                                                                     0100000000000000000000000000000000000000000
1000001152680000000004APUBH1998-115268000034332100000000000000000000000000000000000000000000000000000000000000000                                                                                                                                                                                    00000000000000                    00000000                                                                                                                                                                                     0100000000000000000000000000000000000000000
1000000360042000000004APUBH2005-036004200034332100000000000000000000000000000000000000000000000000000000000000000                                                                                                                                                                                    00000000000000                    00000000                                                                                                                                                                                     0100000000000000000000000000000000000000000
1000000178019000000004APUBH1984-017801900034332100000000000000000000000000000000000000000000000000000000000000000                                                                                                                                                                                    00000000000000                    00000000                                                                                                                                                                                     0100000000000000000000000000000000000000000
1000003629682000000004APUBH2018-362968200034332100000000000000000000000000000000000000000000000000000000000000000                                                                                                                                                                                    00000000000000                    00000000                                                                                                                                                                                     0100000000000000000000000000000000000000000
1000001405150000000004APUBH2022-140515000034332100000000000000000000000000000000000000000000000000000000000000000                                                                                                                                                                                    00000000000000                    00000000                                                                                                                                                                                     0100000000000000000000000000000000000000000
1000005679235000000004APUBH1988-567923500034332100000000000000000000000000000000000000000000000000000000000000000                                                                                                                                                                                    00000000000000                    00000000                                                                                                                                                                                     0100000000000000000000000000000000000000000
1000007466254000000004APUBH2007-746625400034332100000000000000000000000000000000000000000000000000000000000000000                                                                                                                                                                                    00000000000000                    00000000                                                                                                                                                                                     0100000000000000000000000000000000000000000
1000003920467000000004APUBH1973-392046700034332100000000000000000000000000000000000000000000000000000000000000000                                                                                                                                                                                    00000000000000                    00000000                                                                                                                                                                                     0100000000000000000000000000000000000000000
1000005578479000000004APUBH1975-557847900034332100000000000000000000000000000000000000000000000000000000000000000                                                                                                                                                                                    00000000000000                    00000000                                                                                                                                                                                     0100000000000000000000000000000000000000000
1000002885780000000004APUBH2006-288578000034332100000000000000000000000000000000000000000000000000000000000000000                                                                                                                                                                                    00000000000000                    00000000                                                                                                                                                                                     0100000000000000000000000000000000000000000
1000008670107000000004APUBH1984-867010700034332100000000000000000000000000000000000000000000000000000000000000000                                                                                                                                                                                    00000000000000                    00000000                                                                                                                                                                                     0100000000000000000000000000000000000000000
1000000692317000000004APUBH2000-069231700034332100000000000000000000000000000000000000000000000000000000000000000                                                                                                                                                                                    00000000000000                    00000000                                                                                                                                                                                     0100000000000000000000000000000000000000000
1000000632302000000004APUBH1989-063230200034332100000000000000000000000000000000000000000000000000000000000000000                                                                                                                                                                                    00000000000000                    00000000                                                                                                                                                                                     0100000000000000000000000000000000000000000
1000000399069000000004APUBH2011-039906900034332100000000000000000000000000000000000000000000000000000000000000000                                                                                                                                                                                    00000000000000                    00000000                                                                                                                                                                                     0100000000000000000000000000000000000000000
1000001364134000000004APUBH1978-136413400034332100000000000000000000000000000000000000000000000000000000000000000                                                                                                                                                                                    00000000000000                    00000000                                                                                                                                                                                     0100000000000000000000000000000000000000000
1000003510263000000004APUBH1976-351026300034332100000000000000000000000000000000000000000000000000000000000000000                                                                                                                                                                                    00000000000000                    00000000                                                                                                                                                                                     0100000000000000000000000000000000000000000
1000004630310000000004APUBH1990-463031000034332100000000000000000000000000000000000000000000000000000000000000000                                                                                                                                                                                    00000000000000                    00000000                                                                                                                                                                                     0100000000000000000000000000000000000000000
1000005975136000000004APUBH1972-597513600034332100000000000000000000000000000000000000000000000000000000000000000                                                                                                                                                                                    00000000000000                    00000000                                                                                                                                                                                     0100000000000000000000000000000000000000000
1000003055436000000004APUBH1970-305543600034332100000000000000000000000000000000000000000000000000000000000000000                                                                                                                                                                                    00000000000000                    00000000                                                                                                                                                                                     0100000000000000000000000000000000000000000
1000004880912000000004APUBH1972-488091200034332100000000000000000000000000000000000000000000000000000000000000000                                                                                                                                                                                    00000000000000                    00000000                                                                                                                                                                                     0100000000000000000000000000000000000000000
1000007727831000000004APUBH1985-772783100034332100000000000000000000000000000000000000000000000000000000000000000                                                                                                                                                                                    00000000000000                    00000000                                                                                                                                                                                     0100000000000000000000000000000000000000000
1000007519376000000004APUBH2012-751937600034332100000000000000000000000000000000000000000000000000000000000000000                                                                                                                                                                                    00000000000000                    00000000                                                                                                                                                                                     0100000000000000000000000000000000000000000
1000004995569000000004APUBH1997-499556900034332100000000000000000000000000000000000000000000000000000000000000000                                                                                                                                                                                    00000000000000                    00000000                                                                                                                                                                                     0100000000000000000000000000000000000000000
1000003745972000000004APUBH2011-374597200034332100000000000000000000000000000000000000000000000000000000000000000                                                                                                                                                                                    00000000000000                    00000000                                                                                                                                                                                     0100000000000000000000000000000000000000000
1000008203066000000004APUBH2019-820306600034332100000000000000000000000000000000000000000000000000000000000000000                                                                                                                                                                                    00000000000000                    00000000                                                                                                                                                                                     0100000000000000000000000000000000000000000
1000009208609000000004APUBH1972-920860900034332100000000000000000000000000000000000000000000000000000000000000000                                                                                                                                                                                    00000000000000                    00000000                                                                                                                                                                                     0100000000000000000000000000000000000000000
1000008614521000000004APUBH1972-861452100034332100000000000000000000000000000000000000000000000000000000000000000                                                                                                                                                                                    00000000000000                    00000000                                                                                                                                                                                     0100000000000000000000000000000000000000000
1000006559387000000004APUBH1995-655938700034332100000000000000000000000000000000000000000000000000000000000000000                                                                                                                                                                                    00000000000000                    00000000                                                                                                                                                                                     0100000000000000000000000000000000000000000
1000003870980000000004APUBH1993-387098000034332100000000000000000000000000000000000000000000000000000000000000000                                                                                                                                                                                    00000000000000                    00000000                                                                                                                                                                                     0100000000000000000000000000000000000000000
1000006030231000000004APUBH1989-603023100034332100000000000000000000000000000000000000000000000000000000000000000                                                                                                                                                                                    00000000000000                    00000000                                                                                                                                                                                     0100000000000000000000000000000000000000000
1000005780179000000004APUBH2009-578017900034332100000000000000000000000000000000000000000000000000000000000000000                                                                                                                                                                                    00000000000000                    00000000                                                                                                                                                                                     0100000000000000000000000000000000000000000
1000003296985000000004APUBH1978-329698500034332100000000000000000000000000000000000000000000000000000000000000000                                                                                                                                                                                    00000000000000                    00000000                                                                                                                                                                                     0100000000000000000000000000000000000000000
1000009353305000000004APUBH1986-935330500034332100000000000000000000000000000000000000000000000000000000000000000                                                                                                                                                                                    00000000000000                    00000000                                                                                                                                                                                     0100000000000000000000000000000000000000000
1000002165343000000004APUBH2006-216534300034332100000000000000000000000000000000000000000000000000000000000000000                                                                                                                                                                                    00000000000000                    00000000                                                                                                                                                                                     0100000000000000000000000000000000000000000
1000001584358000000004APUBH1990-158435800034332100000000000000000000000000000000000000000000000000000000000000000                                                                                                                                                                                    00000000000000                    00000000                                                                                                                                                                                     0100000000000000000000000000000000000000000
1000008461626000000004APUBH1988-846162600034332100000000000000000000000000000000000000000000000000000000000000000                                                                                                                                                                                    00000000000000                    00000000                                                                                                                                                                                     0100000000000000000000000000000000000000000
1000001458536000000004APUBH2009-145853600034332100000000000000000000000000000000000000000000000000000000000000000                                                                                                                                                                                    00000000000000                    00000000                                                                                                                                                                                     0100000000000000000000000000000000000000000
1000000809732000000004APUBH1979-080973200034332100000000000000000000000000000000000000000000000000000000000000000                                                                                                                                                                                    00000000000000                    00000000                                                                                                                                                                                     0100000000000000000000000000000000000000000
1000006198973000000004APUBH2023-619897300034332100000000000000000000000000000000000000000000000000000000000000000                                                                                                                                                                                    00000000000000                    00000000                                                                                                                                                                                     0100000000000000000000000000000000000000000
1000007366130000000004APUBH1986-736613000034332100000000000000000000000000000000000000000000000000000000000000000                                                                                                                                                                                    00000000000000                    00000000                                                                                                                                                                                     0100000000000000000000000000000000000000000
1000008810146000000004APUBH2003-881014600034332100000000000000000000000000000000000000000000000000000000000000000                                                                                                                                                                                    00000000000000                    00000000                                                                                                                                                                                     0100000000000000000000000000000000000000000
1000002595832000000004APUBH1991-259583200034332100000000000000000000000000000000000000000000000000000000000000000                                                                                                                                                                                    00000000000000                    00000000                                                                                                                                                                                     0100000000000000000000000000000000000000000
1000002834347000000004APUBH2013-283434700034332100000000000000000000000000000000000000000000000000000000000000000                                                                                                                                                                                    00000000000000                    00000000                                                                                                                                                                                     0100000000000000000000000000000000000000000
1000008064771000000004APUBH1973-806477100034332100000000000000000000000000000000000000000000000000000000000000000                                                                                                                                                                                    00000000000000                    00000000                                                                                                                                                                                     0100000000000000000000000000000000000000000
1000009835752000000004APUBH2012-983575200034332100000000000000000000000000000000000000000000000000000000000000000                                                                                                                                                                                    00000000000000                    00000000                                                                                                                                                                                     0100000000000000000000000000000000000000000
1000009043895000000004APUBH2019-904389500034332100000000000000000000000000000000000000000000000000000000000000000                                                                                                                                                                                    00000000000000                    00000000                                                                                                                                                                                     0100000000000000000000000000000000000000000
1000007457043000000004APUBH1980-745704300034332100000000000000000000000000000000000000000000000000000000000000000                                                                                                                                                                                    00000000000000                    00000000                                                                                                                                                                                     0100000000000000000000000000000000000000000
1000008132324000000004APUBH2015-813232400034332100000000000000000000000000000000000000000000000000000000000000000                                                                                                                                                                                    00000000000000                    00000000                                                                                                                                                                                     0100000000000000000000000000000000000000000
1000005637993000000004APUBH2005-563799300034332100000000000000000000000000000000000000000000000000000000000000000                                                                                                                                                                                    00000000000000                    00000000                                                                                                                                                                                     0100000000000000000000000000000000000000000
1000005359126000000004APUBH1972-535912600034332100000000000000000000000000000000000000000000000000000000000000000                                                                                                                                                                                    00000000000000                    00000000                                                                                                                                                                                     0100000000000000000000000000000000000000000
1000009463709000000004APUBH2010-946370900034332100000000000000000000000000000000000000000000000000000000000000000                                                                                                                                                                                    00000000000000                    00000000                                                                                                                                                                                     0100000000000000000000000000000000000000000
1000009894594000000004APUBH2000-989459400034332100000000000000000000000000000000000000000000000000000000000000000                                                                                                                                                                                    00000000000000                    00000000                                                                                                                                                                                     0100000000000000000000000000000000000000000
1000009595604000000004APUBH1985-959560400034332100000000000000000000000000000000000000000000000000000000000000000                                                                                                                                                                                    00000000000000                    00000000                                                                                                                                                                                     0100000000000000000000000000000000000000000
1000008467121000000004APUBH1993-846712100034332100000000000000000000000000000000000000000000000000000000000000000                                                                                                                                                                                    00000000000000                    00000000                                                                                                                                                                                     0100000000000000000000000000000000000000000
1000005091349000000004APUBH1973-509134900034332100000000000000000000000000000000000000000000000000000000000000000                                                                                                                                                                                    00000000000000                    00000000                                                                                                                                                                                     0100000000000000000000000000000000000000000
1000004758406000000004APUBH2018-475840600034332100000000000000000000000000000000000000000000000000000000000000000                                                                                                                                                                                    00000000000000                    00000000                                                                                                                                                                                     0100000000000000000000000000000000000000000
1000007911364000000004APUBH2004-791136400034332100000000000000000000000000000000000000000000000000000000000000000                                                                                                                                                                                    00000000000000                    00000000                                                                                                                                                                                     0100000000000000000000000000000000000000000
1000007899295000000004APUBH2005-789929500034332100000000000000000000000000000000000000000000000000000000000000000                                                                                                                                                                                    00000000000000                    00000000                                                                                                                                                                                     0100000000000000000000000000000000000000000
1000008053342000000004APUBH1995-805334200034332100000000000000000000000000000000000000000000000000000000000000000                                                                                                                                                                                    00000000000000                    00000000                                                                                                                                                                                     0100000000000000000000000000000000000000000
1000002998330000000004APUBH2010-299833000034332100000000000000000000000000000000000000000000000000000000000000000                                                                                                                                                                                    00000000000000                    00000000                                                                                                                                                                                     0100000000000000000000000000000000000000000
1000007799982000000004APUBH1971-779998200034332100000000000000000000000000000000000000000000000000000000000000000                                                                                                                                                                                    00000000000000                    00000000                                                                                                                                                                                     0100000000000000000000000000000000000000000
1000004003623000000004APUBH2015-400362300034332100000000000000000000000000000000000000000000000000000000000000000                                                                                                                                                                                    00000000000000                    00000000                                                                                                                                                                                     0100000000000000000000000000000000000000000
1000009720241000000004APUBH1984-972024100034332100000000000000000000000000000000000000000000000000000000000000000                                                                                                                                                                                    00000000000000                    00000000                                                                                                                                                                                     0100000000000000000000000000000000000000000
1000009406467000000004APUBH1981-940646700034332100000000000000000000000000000000000000000000000000000000000000000                                                                                                                                                                                    00000000000000                    00000000                                                                                                                                                                                     0100000000000000000000000000000000000000000
1000002394908000000004APUBH1988-239490800034332100000000000000000000000000000000000000000000000000000000000000000                                                                                                                                                                                    00000000000000                    00000000                                                                                                                                                                                     0100000000000000000000000000000000000000000
1000001531386000000004APUBH2009-153138600034332100000000000000000000000000000000000000000000000000000000000000000                                                                                                                                                                                    00000000000000                    00000000                                                                                                                                                                                     0100000000000000000000000000000000000000000
1000006445564000000004APUBH2013-644556400034332100000000000000000000000000000000000000000000000000000000000000000                                                                                                                                                                                    00000000000000                    00000000                                                                                                                                                                                     0100000000000000000000000000000000000000000
1000004362547000000004APUBH1974-436254700034332100000000000000000000000000000000000000000000000000000000000000000                                                                                                                                                                                    00000000000000                    00000000                                                                                                                                                                                     0100000000000000000000000000000000000000000
1000005476532000000004APUBH2000-547653200034332100000000000000000000000000000000000000000000000000000000000000000                                                                                                                                                                                    00000000000000                    00000000                                                                                                                                                                                     0100000000000000000000000000000000000000000
1000003315373000000004APUBH1976-331537300034332100000000000000000000000000000000000000000000000000000000000000000                                                                                                                                                                                    00000000000000                    00000000                                                                                                                                                                                     0100000000000000000000000000000000000000000
1000009316874000000004APUBH2012-931687400034332100000000000000000000000000000000000000000000000000000000000000000                                                                                                                                                                                    00000000000000                    00000000                                                                                                                                                                                     0100000000000000000000000000000000000000000
1000001174334000000004APUBH2008-117433400034332100000000000000000000000000000000000000000000000000000000000000000                                                                                                                                                                                    00000000000000                    00000000                                                                                                                                                                                     0100000000000000000000000000000000000000000
1000003993543000000004APUBH2016-399354300034332100000000000000000000000000000000000000000000000000000000000000000                                                                                                                                                                                    00000000000000                    00000000                                                                                                                                                                                     0100000000000000000000000000000000000000000
1000003016687000000004APUBH2019-301668700034332100000000000000000000000000000000000000000000000000000000000000000                                                                                                                                                                                    00000000000000                    00000000                                                                                                                                                                                     0100000000000000000000000000000000000000000
1000000094534000000004APUBH1991-009453400034332100000000000000000000000000000000000000000000000000000000000000000                                                                                                                                                                                    00000000000000                    00000000                                                                                                                                                                                     0100000000000000000000000000000000000000000
1000005528395000000004APUBH1982-552839500034332100000000000000000000000000000000000000000000000000000000000000000                                                                                                                                                                                    00000000000000                    00000000                                                                                                                                                                                     0100000000000000000000000000000000000000000
1000001459474000000004APUBH1991-145947400034332100000000000000000000000000000000000000000000000000000000000000000                                                                                                                                                                                    00000000000000                    00000000                                                                                                                                                                                     0100000000000000000000000000000000000000000
1000007492392000000004APUBH1984-749239200034332100000000000000000000000000000000000000000000000000000000000000000                                                                                                                                                                                    00000000000000                    00000000                                                                                                                                                                                     0100000000000000000000000000000000000000000
1000006927789000000004APUBH2017-692778900034332100000000000000000000000000000000000000000000000000000000000000000                                                                                                                                                                                    00000000000000                    00000000                                                                                                                                                                                     0100000000000000000000000000000000000000000
1000003405102000000004APUBH1986-340510200034332100000000000000000000000000000000000000000000000000000000000000000                                                                                                                                                                                    00000000000000                    00000000                                                                                                                                                                                     0100000000000000000000000000000000000000000
1000002200148000000004APUBH2007-220014800034332100000000000000000000000000000000000000000000000000000000000000000                                                                                                                                                                                    00000000000000                    00000000                                                                                                                                                                                     0100000000000000000000000000000000000000000
1000009147484000000004APUBH1996-914748400034332100000000000000000000000000000000000000000000000000000000000000000                                                                                                                                                                                    00000000000000                    00000000                                                                                                                                                                                     0100000000000000000000000000000000000000000
1000006948617000000004APUBH2004-694861700034332100000000000000000000000000000000000000000000000000000000000000000                                                                                                                                                                                    00000000000000                    00000000                                                                                                                                                                                     0100000000000000000000000000000000000000000
1000004142485000000004APUBH2024-414248500034332100000000000000000000000000000000000000000000000000000000000000000                                                                                                                                                                                    00000000000000                    00000000                                                                                                                                                                                     0100000000000000000000000000000000000000000
1000008396237000000004APUBH2019-839623700034332100000000000000000000000000000000000000000000000000000000000000000                                                                                                                                                                                    00000000000000                    00000000                                                                                                                                                                                     0100000000000000000000000000000000000000000
1000003141298000000004APUBH2016-314129800034332100000000000000000000000000000000000000000000000000000000000000000                                                                                                                                                                                    00000000000000                    00000000                                                                                                                                                                                     0100000000000000000000000000000000000000000
1000000897081000000004APUBH1986-089708100034332100000000000000000000000000000000000000000000000000000000000000000                                                                                                                                                                                    00000000000000                    00000000                                                                                                                                                                                     0100000000000000000000000000000000000000000
1000007481816000000004APUBH1998-748181600034332100000000000000000000000000000000000000000000000000000000000000000                                                                                                                                                                                    00000000000000                    00000000                                                                                                                                                                                     0100000000000000000000000000000000000000000
1000008056175000000004APUBH1989-805617500034332100000000000000000000000000000000000000000000000000000000000000000                                                                                                                                                                                    00000000000000                    00000000                                                                                                                                                                                     0100000000000000000000000000000000000000000
1000008229168000000004APUBH2003-822916800034332100000000000000000000000000000000000000000000000000000000000000000                                                                                                                                                                                    00000000000000                    00000000                                                                                                                                                                                     0100000000000000000000000000000000000000000
1000009751736000000004APUBH1975-975173600034332100000000000000000000000000000000000000000000000000000000000000000                                                                                                                                                                                    00000000000000                    00000000                                                                                                                                                                                     0100000000000000000000000000000000000000000
1000002471204000000004APUBH1981-247120400034332100000000000000000000000000000000000000000000000000000000000000000                                                                                                                                                                                    00000000000000                    00000000                                                                                                                                                                                     0100000000000000000000000000000000000000000
1000005596248000000004APUBH2019-559624800034332100000000000000000000000000000000000000000000000000000000000000000                                                                                                                                                                                    00000000000000                    00000000                                                                                                                                                                                     0100000000000000000000000000000000000000000
1000007411519000000004APUBH2010-741151900034332100000000000000000000000000000000000000000000000000000000000000000                                                                                                                                                                                    00000000000000                    00000000                                                                                                                                                                                     0100000000000000000000000000000000000000000
1000008763223000000004APUBH1989-876322300034332100000000000000000000000000000000000000000000000000000000000000000                                                                                                                                                                                    00000000000000                    00000000                                                                                                                                                                                     0100000000000000000000000000000000000000000
1000008354679000000004APUBH1972-835467900034332100000000000000000000000000000000000000000000000000000000000000000                                                                                                                                                                                    00000000000000                    00000000                                                                                                                                                                                     0100000000000000000000000000000000000000000
1000002482797000000004APUBH1973-248279700034332100000000000000000000000000000000000000000000000000000000000000000                                                                                                                                                                                    00000000000000                    00000000                                                                                                                                                                                     0100000000000000000000000000000000000000000
1000008725880000000004APUBH2011-872588000034332100000000000000000000000000000000000000000000000000000000000000000                                                                                                                                                                                    00000000000000                    00000000                                                                                                                                                                                     0100000000000000000000000000000000000000000
1000009640628000000004APUBH2008-964062800034332100000000000000000000000000000000000000000000000000000000000000000                                                                                                                                                                                    00000000000000                    00000000                                                                                                                                                                                     0100000000000000000000000000000000000000000
1000002799474000000004APUBH1979-279947400034332100000000000000000000000000000000000000000000000000000000000000000                                                                                                                                                                                    00000000000000                    00000000                                                                                                                                                                                     0100000000000000000000000000000000000000000
1000000071138000000004APUBH1993-007113800034332100000000000000000000000000000000000000000000000000000000000000000                                                                                                                                                                                    00000000000000                    00000000                                                                                                                                                                                     0100000000000000000000000000000000000000000
1000008191440000000004APUBH1990-819144000034332100000000000000000000000000000000000000000000000000000000000000000                                                                                                                                                                                    00000000000000                    00000000                                                                                                                                                                                     0100000000000000000000000000000000000000000
1000002979023000000004APUBH2005-297902300034332100000000000000000000000000000000000000000000000000000000000000000                                                                                                                                                                                    00000000000000                    00000000                                                                                                                                                                                     0100000000000000000000000000000000000000000
1000008370543000000004APUBH1972-837054300034332100000000000000000000000000000000000000000000000000000000000000000                                                                                                                                                                                    00000000000000                    00000000                                                                                                                                                                                     0100000000000000000000000000000000000000000
1000009127028000000004APUBH1975-912702800034332100000000000000000000000000000000000000000000000000000000000000000                                                                                                                                                                                    00000000000000                    00000000                                                                                                                                                                                     0100000000000000000000000000000000000000000
1000002554565000000004APUBH2012-255456500034332100000000000000000000000000000000000000000000000000000000000000000                                                                                                                                                                                    00000000000000                    00000000                                                                                                                                                                                     0100000000000000000000000000000000000000000
1000008050216000000004APUBH2005-805021600034332100000000000000000000000000000000000000000000000000000000000000000                                                                                                                                                                                    00000000000000                    00000000                                                                                                                                                                                     0100000000000000000000000000000000000000000
1000002117282000000004APUBH1992-211728200034332100000000000000000000000000000000000000000000000000000000000000000                                                                                                                                                                                    00000000000000                    00000000                                                                                                                                                                                     0100000000000000000000000000000000000000000
1000006702818000000004APUBH1977-670281800034332100000000000000000000000000000000000000000000000000000000000000000                                                                                                                                                                                    00000000000000                    00000000                                                                                                                                                                                     0100000000000000000000000000000000000000000
1000000479487000000004APUBH2013-047948700034332100000000000000000000000000000000000000000000000000000000000000000                                                                                                                                                                                    00000000000000                    00000000                                                                                                                                                                                     0100000000000000000000000000000000000000000
1000003040268000000004APUBH1984-304026800034332100000000000000000000000000000000000000000000000000000000000000000                                                                                                                                                                                    00000000000000                    00000000                                                                                                                                                                                     0100000000000000000000000000000000000000000
1000009959824000000004APUBH1987-995982400034332100000000000000000000000000000000000000000000000000000000000000000                                                                                                                                                                                    00000000000000                    00000000                                                                                                                                                                                     0100000000000000000000000000000000000000000
1000005326194000000004APUBH2004-532619400034332100000000000000000000000000000000000000000000000000000000000000000                                                                                                                                                                                    00000000000000                    00000000                                                                                                                                                                                     0100000000000000000000000000000000000000000
1000008323522000000004APUBH2001-832352200034332100000000000000000000000000000000000000000000000000000000000000000                                                                                                                                                                                    00000000000000                    00000000                                                                                                                                                                                     0100000000000000000000000000000000000000000
1000006940543000000004APUBH1981-694054300034332100000000000000000000000000000000000000000000000000000000000000000                                                                                                                                                                                    00000000000000                    00000000                                                                                                                                                                                     0100000000000000000000000000000000000000000
1000004790780000000004APUBH2012-479078000034332100000000000000000000000000000000000000000000000000000000000000000                                                                                                                                                                                    00000000000000                    00000000                                                                                                                                                                                     0100000000000000000000000000000000000000000
1000008498890000000004APUBH2021-849889000034332100000000000000000000000000000000000000000000000000000000000000000                                                                                                                                                                                    00000000000000                    00000000                                                                                                                                                                                     0100000000000000000000000000000000000000000
1000008671943000000004APUBH2005-867194300034332100000000000000000000000000000000000000000000000000000000000000000                                                                                                                                                                                    00000000000000                    00000000                                                                                                                                                                                     0100000000000000000000000000000000000000000
1000001142810000000004APUBH1999-114281000034332100000000000000000000000000000000000000000000000000000000000000000                                                                                                                                                                                    00000000000000                    00000000                                                                                                                                                                                     0100000000000000000000000000000000000000000
1000009483818000000004APUBH1989-948381800034332100000000000000000000000000000000000000000000000000000000000000000                                                                                                                                                                                    00000000000000                    00000000                                                                                                                                                                                     0100000000000000000000000000000000000000000
1000006240794000000004APUBH2020-624079400034332100000000000000000000000000000000000000000000000000000000000000000                                                                                                                                                                                    00000000000000                    00000000                                                                                                                                                                                     0100000000000000000000000000000000000000000
1000004543432000000004APUBH1975-454343200034332100000000000000000000000000000000000000000000000000000000000000000                                                                                                                                                                                    00000000000000                    00000000                                                                                                                                                                                     0100000000000000000000000000000000000000000
1000005634147000000004APUBH2017-563414700034332100000000000000000000000000000000000000000000000000000000000000000                                                                                                                                                                                    00000000000000                    00000000                                                                                                                                                                                     0100000000000000000000000000000000000000000
1000000750000000000004APUBH1971-075000000034332100000000000000000000000000000000000000000000000000000000000000000                                                                                                                                                                                    00000000000000                    00000000                                                                                                                                                                                     0100000000000000000000000000000000000000000
1000009774082000000004APUBH1984-977408200034332100000000000000000000000000000000000000000000000000000000000000000                                                                                                                                                                                    00000000000000                    00000000                                                                                                                                                                                     0100000000000000000000000000000000000000000
1000007841781000000004APUBH2003-784178100034332100000000000000000000000000000000000000000000000000000000000000000                                                                                                                                                                                    00000000000000                    00000000                                                                                                                                                                                     0100000000000000000000000000000000000000000
1000005432702000000004APUBH1999-543270200034332100000000000000000000000000000000000000000000000000000000000000000                                                                                                                                                                                    00000000000000                    00000000                                                                                                                                                                                     0100000000000000000000000000000000000000000
1000003215683000000004APUBH2010-321568300034332100000000000000000000000000000000000000000000000000000000000000000                                                                                                                                                                                    00000000000000                    00000000                                                                                                                                                                                     0100000000000000000000000000000000000000000
1000004884345000000004APUBH1978-488434500034332100000000000000000000000000000000000000000000000000000000000000000                                                                                                                                                                                    00000000000000                    00000000                                                                                                                                                                                     0100000000000000000000000000000000000000000
1000004553601000000004APUBH2015-455360100034332100000000000000000000000000000000000000000000000000000000000000000                                                                                                                                                                                    00000000000000                    00000000                                                                                                                                                                                     0100000000000000000000000000000000000000000
1000001447558000000004APUBH1991-144755800034332100000000000000000000000000000000000000000000000000000000000000000                                                                                                                                                                                    00000000000000                    00000000                                                                                                                                                                                     0100000000000000000000000000000000000000000
1000003535366000000004APUBH2000-353536600034332100000000000000000000000000000000000000000000000000000000000000000                                                                                                                                                                                    00000000000000                    00000000                                                                                                                                                                                     0100000000000000000000000000000000000000000
1000007990748000000004APUBH1989-799074800034332100000000000000000000000000000000000000000000000000000000000000000                                                                                                                                                                                    00000000000000                    00000000                                                                                                                                                                                     0100000000000000000000000000000000000000000
1000007750008000000004APUBH2003-775000800034332100000000000000000000000000000000000000000000000000000000000000000                                                                                                                                                                                    00000000000000                    00000000                                                                                                                                                                                     0100000000000000000000000000000000000000000
1000007961334000000004APUBH1986-796133400034332100000000000000000000000000000000000000000000000000000000000000000                                                                                                                                                                                    00000000000000                    00000000                                                                                                                                                                                     0100000000000000000000000000000000000000000
1000002369058000000004APUBH1970-236905800034332100000000000000000000000000000000000000000000000000000000000000000                                                                                                                                                                                    00000000000000                    00000000                                                                                                                                                                                     0100000000000000000000000000000000000000000
1000006370372000000004APUBH1995-637037200034332100000000000000000000000000000000000000000000000000000000000000000                                                                                                                                                                                    00000000000000                    00000000                                                                                                                                                                                     0100000000000000000000000000000000000000000
1000004919947000000004APUBH1986-491994700034332100000000000000000000000000000000000000000000000000000000000000000                                                                                                                                                                                    00000000000000                    00000000                                                                                                                                                                                     0100000000000000000000000000000000000000000
1000000491539000000004APUBH1981-049153900034332100000000000000000000000000000000000000000000000000000000000000000                                                                                                                                                                                    00000000000000                    00000000                                                                                                                                                                                     0100000000000000000000000000000000000000000
1000001450184000000004APUBH1983-145018400034332100000000000000000000000000000000000000000000000000000000000000000                                                                                                                                                                                    00000000000000                    00000000                                                                                                                                                                                     0100000000000000000000000000000000000000000
1000009523656000000004APUBH1981-952365600034332100000000000000000000000000000000000000000000000000000000000000000                                                                                                                                                                                    00000000000000                    00000000                                                                                                                                                                                     0100000000000000000000000000000000000000000
1000007310464000000004APUBH2009-731046400034332100000000000000000000000000000000000000000000000000000000000000000                                                                                                                                                                                    00000000000000                    00000000                                                                                                                                                                                     0100000000000000000000000000000000000000000
1000007732696000000004APUBH1989-773269600034332100000000000000000000000000000000000000000000000000000000000000000                                                                                                                                                                                    00000000000000                    00000000                                                                                                                                                                                     0100000000000000000000000000000000000000000
1000008097052000000004APUBH1979-809705200034332100000000000000000000000000000000000000000000000000000000000000000                                                                                                                                                                                    00000000000000                    00000000                                                                                                                                                                                     0100000000000000000000000000000000000000000
1000001043019000000004APUBH1998-104301900034332100000000000000000000000000000000000000000000000000000000000000000                                                                                                                                                                                    00000000000000                    00000000                                                                                                                                                                                     0100000000000000000000000000000000000000000
1000006413658000000004APUBH2018-641365800034332100000000000000000000000000000000000000000000000000000000000000000                                                                                                                                                                                    00000000000000                    00000000                                                                                                                                                                                     0100000000000000000000000000000000000000000
1000002065821000000004APUBH1989-206582100034332100000000000000000000000000000000000000000000000000000000000000000                                                                                                                                                                                    00000000000000                    00000000                                                                                                                                                                                     0100000000000000000000000000000000000000000
1000002609292000000004APUBH1970-260929200034332100000000000000000000000000000000000000000000000000000000000000000                                                                                                                                                                                    00000000000000                    00000000                                                                                                                                                                                     0100000000000000000000000000000000000000000
1000002022953000000004APUBH2023-202295300034332100000000000000000000000000000000000000000000000000000000000000000                                                                                                                                                                                    00000000000000                    00000000                                                                                                                                                                                     0100000000000000000000000000000000000000000
1000009047539000000004APUBH2024-904753900034332100000000000000000000000000000000000000000000000000000000000000000                                                                                                                                                                                    00000000000000                    00000000                                                                                                                                                                                     0100000000000000000000000000000000000000000
1000004079421000000004APUBH2000-407942100034332100000000000000000000000000000000000000000000000000000000000000000                                                                                                                                                                                    00000000000000                    00000000                                                                                                                                                                                     0100000000000000000000000000000000000000000
1000006472362000000004APUBH2023-647236200034332100000000000000000000000000000000000000000000000000000000000000000                                                                                                                                                                                    00000000000000                    00000000                                                                                                                                                                                     0100000000000000000000000000000000000000000
1000001829737000000004APUBH1986-182973700034332100000000000000000000000000000000000000000000000000000000000000000                                                                                                                                                                                    00000000000000                    00000000                                                                                                                                                                                     0100000000000000000000000000000000000000000
1000003224281000000004APUBH2003-322428100034332100000000000000000000000000000000000000000000000000000000000000000                                                                                                                                                                                    00000000000000                    00000000                                                                                                                                                                                     0100000000000000000000000000000000000000000
1000003910797000000004APUBH1974-391079700034332100000000000000000000000000000000000000000000000000000000000000000                                                                                                                                                                                    00000000000000                    00000000                                                                                                                                                                                     0100000000000000000000000000000000000000000
1000008119512000000004APUBH1988-811951200034332100000000000000000000000000000000000000000000000000000000000000000                                                                                                                                                                                    00000000000000                    00000000                                                                                                                                                                                     0100000000000000000000000000000000000000000
1000009101906000000004APUBH2003-910190600034332100000000000000000000000000000000000000000000000000000000000000000                                                                                                                                                                                    00000000000000                    00000000                                                                                                                                                                                     0100000000000000000000000000000000000000000
1000004207357000000004APUBH1971-420735700034332100000000000000000000000000000000000000000000000000000000000000000                                                                                                                                                                                    00000000000000                    00000000                                                                                                                                                                                     0100000000000000000000000000000000000000000
1000005722085000000004APUBH2009-572208500034332100000000000000000000000000000000000000000000000000000000000000000                                                                                                                                                                                    00000000000000                    00000000                                                                                                                                                                                     0100000000000000000000000000000000000000000
1000009116594000000004APUBH1991-911659400034332100000000000000000000000000000000000000000000000000000000000000000                                                                                                                                                                                    00000000000000                    00000000                                                                                                                                                                                     0100000000000000000000000000000000000000000
1000001357563000000004APUBH2015-135756300034332100000000000000000000000000000000000000000000000000000000000000000                                                                                                                                                                                    00000000000000                    00000000                                                                                                                                                                                     0100000000000000000000000000000000000000000
1000006341264000000004APUBH2022-634126400034332100000000000000000000000000000000000000000000000000000000000000000                                                                                                                                                                                    00000000000000                    00000000                                                                                                                                                                                     0100000000000000000000000000000000000000000
1000004984530000000004APUBH2011-498453000034332100000000000000000000000000000000000000000000000000000000000000000                                                                                                                                                                                    00000000000000                    00000000                                                                                                                                                                                     0100000000000000000000000000000000000000000
1000002268816000000004APUBH1975-226881600034332100000000000000000000000000000000000000000000000000000000000000000                                                                                                                                                                                    00000000000000                    00000000                                                                                                                                                                                     0100000000000000000000000000000000000000000
